8=FIX.4.2|9=80|35=A|34=1|49=SANJINUAT|52=20180115-08:39:03.037|56=CICCIMSUAT|98=0|108=30|141=Y|10=190|8=FIX.4.2|9=120|35=UF001|34=2|49=SANJINUAT|52=20180115-08:39:05.024|56=CICCIMSUAT|98=0|109=sanjinuat|8001=sanjin123|8088=11516005545025|10=015|8=FIX.4.2|9=108|35=URP|34=3|49=SANJINUAT|52=20180115-08:39:15.030|56=CICCIMSUAT|115=SANJIN|1=0884PT0001|8088=11516005555031|10=121|8=FIX.4.2|9=108|35=URB|34=4|49=SANJINUAT|52=20180115-08:39:15.030|56=CICCIMSUAT|115=SANJIN|1=0884PT0001|8088=11516005555033|10=110|8=FIX.4.2|9=108|35=URP|34=5|49=SANJINUAT|52=20180115-08:39:25.035|56=CICCIMSUAT|115=SANJIN|1=0884PT0001|8088=11516005565039|10=138|8=FIX.4.2|9=108|35=URB|34=6|49=SANJINUAT|52=20180115-08:39:25.036|56=CICCIMSUAT|115=SANJIN|1=0884PT0001|8088=11516005565041|10=119|8=FIX.4.2|9=108|35=URP|34=7|49=SANJINUAT|52=20180115-08:39:35.040|56=CICCIMSUAT|115=SANJIN|1=0884PT0001|8088=11516005575046|10=136|8=FIX.4.2|9=108|35=URB|34=8|49=SANJINUAT|52=20180115-08:39:35.040|56=CICCIMSUAT|115=SANJIN|1=0884PT0001|8088=11516005575047|10=124|8=FIX.4.2|9=108|35=URP|34=9|49=SANJINUAT|52=20180115-08:39:45.045|56=CICCIMSUAT|115=SANJIN|1=0884PT0001|8088=11516005585053|10=143|8=FIX.4.2|9=109|35=URB|34=10|49=SANJINUAT|52=20180115-08:39:45.046|56=CICCIMSUAT|115=SANJIN|1=0884PT0001|8088=11516005585055|10=173|8=FIX.4.2|9=109|35=URP|34=11|49=SANJINUAT|52=20180115-08:39:55.050|56=CICCIMSUAT|115=SANJIN|1=0884PT0001|8088=11516005595060|10=181|8=FIX.4.2|9=109|35=URB|34=12|49=SANJINUAT|52=20180115-08:39:55.051|56=CICCIMSUAT|115=SANJIN|1=0884PT0001|8088=11516005595062|10=171|8=FIX.4.2|9=109|35=URP|34=13|49=SANJINUAT|52=20180115-08:40:05.055|56=CICCIMSUAT|115=SANJIN|1=0884PT0001|8088=11516005605067|10=174|8=FIX.4.2|9=109|35=URB|34=14|49=SANJINUAT|52=20180115-08:40:05.055|56=CICCIMSUAT|115=SANJIN|1=0884PT0001|8088=11516005605068|10=162|8=FIX.4.2|9=109|35=URP|34=15|49=SANJINUAT|52=20180115-08:40:15.060|56=CICCIMSUAT|115=SANJIN|1=0884PT0001|8088=11516005615074|10=172|8=FIX.4.2|9=109|35=URB|34=16|49=SANJINUAT|52=20180115-08:40:15.060|56=CICCIMSUAT|115=SANJIN|1=0884PT0001|8088=11516005615075|10=160|8=FIX.4.2|9=109|35=URP|34=17|49=SANJINUAT|52=20180115-08:40:25.065|56=CICCIMSUAT|115=SANJIN|1=0884PT0001|8088=11516005625081|10=179|8=FIX.4.2|9=109|35=URB|34=18|49=SANJINUAT|52=20180115-08:40:25.065|56=CICCIMSUAT|115=SANJIN|1=0884PT0001|8088=11516005625082|10=167|8=FIX.4.2|9=109|35=URP|34=19|49=SANJINUAT|52=20180115-08:40:35.068|56=CICCIMSUAT|115=SANJIN|1=0884PT0001|8088=11516005635086|10=191|8=FIX.4.2|9=109|35=URB|34=20|49=SANJINUAT|52=20180115-08:40:35.068|56=CICCIMSUAT|115=SANJIN|1=0884PT0001|8088=11516005635087|10=170|8=FIX.4.2|9=109|35=URP|34=21|49=SANJINUAT|52=20180115-08:40:45.071|56=CICCIMSUAT|115=SANJIN|1=0884PT0001|8088=11516005645091|10=176|8=FIX.4.2|9=109|35=URB|34=22|49=SANJINUAT|52=20180115-08:40:45.071|56=CICCIMSUAT|115=SANJIN|1=0884PT0001|8088=11516005645092|10=164|8=FIX.4.2|9=109|35=URP|34=23|49=SANJINUAT|52=20180115-08:40:55.074|56=CICCIMSUAT|115=SANJIN|1=0884PT0001|8088=11516005655096|10=188|8=FIX.4.2|9=109|35=URB|34=24|49=SANJINUAT|52=20180115-08:40:55.074|56=CICCIMSUAT|115=SANJIN|1=0884PT0001|8088=11516005655097|10=176|8=FIX.4.2|9=109|35=URP|34=25|49=SANJINUAT|52=20180115-08:41:05.077|56=CICCIMSUAT|115=SANJIN|1=0884PT0001|8088=11516005665101|10=177|8=FIX.4.2|9=109|35=URB|34=26|49=SANJINUAT|52=20180115-08:41:05.077|56=CICCIMSUAT|115=SANJIN|1=0884PT0001|8088=11516005665102|10=165|8=FIX.4.2|9=109|35=URP|34=27|49=SANJINUAT|52=20180115-08:41:15.079|56=CICCIMSUAT|115=SANJIN|1=0884PT0001|8088=11516005675105|10=187|8=FIX.4.2|9=109|35=URB|34=28|49=SANJINUAT|52=20180115-08:41:15.079|56=CICCIMSUAT|115=SANJIN|1=0884PT0001|8088=11516005675106|10=175|8=FIX.4.2|9=109|35=URP|34=29|49=SANJINUAT|52=20180115-08:41:25.082|56=CICCIMSUAT|115=SANJIN|1=0884PT0001|8088=11516005685110|10=181|8=FIX.4.2|9=109|35=URB|34=30|49=SANJINUAT|52=20180115-08:41:25.082|56=CICCIMSUAT|115=SANJIN|1=0884PT0001|8088=11516005685111|10=160|8=FIX.4.2|9=109|35=URP|34=31|49=SANJINUAT|52=20180115-08:41:35.085|56=CICCIMSUAT|115=SANJIN|1=0884PT0001|8088=11516005695115|10=184|8=FIX.4.2|9=109|35=URB|34=32|49=SANJINUAT|52=20180115-08:41:35.086|56=CICCIMSUAT|115=SANJIN|1=0884PT0001|8088=11516005695117|10=174|8=FIX.4.2|9=109|35=URP|34=33|49=SANJINUAT|52=20180115-08:41:45.088|56=CICCIMSUAT|115=SANJIN|1=0884PT0001|8088=11516005705120|10=178|8=FIX.4.2|9=109|35=URB|34=34|49=SANJINUAT|52=20180115-08:41:45.088|56=CICCIMSUAT|115=SANJIN|1=0884PT0001|8088=11516005705121|10=166|8=FIX.4.2|9=109|35=URP|34=35|49=SANJINUAT|52=20180115-08:41:55.091|56=CICCIMSUAT|115=SANJIN|1=0884PT0001|8088=11516005715125|10=181|8=FIX.4.2|9=109|35=URB|34=36|49=SANJINUAT|52=20180115-08:41:55.091|56=CICCIMSUAT|115=SANJIN|1=0884PT0001|8088=11516005715126|10=169|8=FIX.4.2|9=109|35=URP|34=37|49=SANJINUAT|52=20180115-08:42:05.094|56=CICCIMSUAT|115=SANJIN|1=0884PT0001|8088=11516005725130|10=179|8=FIX.4.2|9=109|35=URB|34=38|49=SANJINUAT|52=20180115-08:42:05.094|56=CICCIMSUAT|115=SANJIN|1=0884PT0001|8088=11516005725131|10=167|8=FIX.4.2|9=109|35=URP|34=39|49=SANJINUAT|52=20180115-08:42:15.097|56=CICCIMSUAT|115=SANJIN|1=0884PT0001|8088=11516005735135|10=191|8=FIX.4.2|9=109|35=URB|34=40|49=SANJINUAT|52=20180115-08:42:15.097|56=CICCIMSUAT|115=SANJIN|1=0884PT0001|8088=11516005735136|10=170|8=FIX.4.2|9=109|35=URP|34=41|49=SANJINUAT|52=20180115-08:42:25.100|56=CICCIMSUAT|115=SANJIN|1=0884PT0001|8088=11516005745140|10=167|8=FIX.4.2|9=109|35=URB|34=42|49=SANJINUAT|52=20180115-08:42:25.100|56=CICCIMSUAT|115=SANJIN|1=0884PT0001|8088=11516005745141|10=155|8=FIX.4.2|9=109|35=URP|34=43|49=SANJINUAT|52=20180115-08:42:35.102|56=CICCIMSUAT|115=SANJIN|1=0884PT0001|8088=11516005755144|10=177|8=FIX.4.2|9=109|35=URB|34=44|49=SANJINUAT|52=20180115-08:42:35.103|56=CICCIMSUAT|115=SANJIN|1=0884PT0001|8088=11516005755146|10=167|8=FIX.4.2|9=109|35=URP|34=45|49=SANJINUAT|52=20180115-08:42:45.105|56=CICCIMSUAT|115=SANJIN|1=0884PT0001|8088=11516005765149|10=189|8=FIX.4.2|9=109|35=URB|34=46|49=SANJINUAT|52=20180115-08:42:45.105|56=CICCIMSUAT|115=SANJIN|1=0884PT0001|8088=11516005765150|10=168|8=FIX.4.2|9=109|35=URP|34=47|49=SANJINUAT|52=20180115-08:42:55.107|56=CICCIMSUAT|115=SANJIN|1=0884PT0001|8088=11516005775153|10=190|8=FIX.4.2|9=109|35=URB|34=48|49=SANJINUAT|52=20180115-08:42:55.107|56=CICCIMSUAT|115=SANJIN|1=0884PT0001|8088=11516005775154|10=178|8=FIX.4.2|9=109|35=URP|34=49|49=SANJINUAT|52=20180115-08:43:05.110|56=CICCIMSUAT|115=SANJIN|1=0884PT0001|8088=11516005785158|10=188|8=FIX.4.2|9=109|35=URB|34=50|49=SANJINUAT|52=20180115-08:43:05.110|56=CICCIMSUAT|115=SANJIN|1=0884PT0001|8088=11516005785159|10=167|8=FIX.4.2|9=109|35=URP|34=51|49=SANJINUAT|52=20180115-08:43:15.112|56=CICCIMSUAT|115=SANJIN|1=0884PT0001|8088=11516005795162|10=180|8=FIX.4.2|9=109|35=URB|34=52|49=SANJINUAT|52=20180115-08:43:15.112|56=CICCIMSUAT|115=SANJIN|1=0884PT0001|8088=11516005795163|10=168|8=FIX.4.2|9=109|35=URP|34=53|49=SANJINUAT|52=20180115-08:43:25.114|56=CICCIMSUAT|115=SANJIN|1=0884PT0001|8088=11516005805166|10=181|8=FIX.4.2|9=109|35=URB|34=54|49=SANJINUAT|52=20180115-08:43:25.114|56=CICCIMSUAT|115=SANJIN|1=0884PT0001|8088=11516005805167|10=169|8=FIX.4.2|9=109|35=URP|34=55|49=SANJINUAT|52=20180115-08:43:35.116|56=CICCIMSUAT|115=SANJIN|1=0884PT0001|8088=11516005815170|10=182|8=FIX.4.2|9=109|35=URB|34=56|49=SANJINUAT|52=20180115-08:43:35.116|56=CICCIMSUAT|115=SANJIN|1=0884PT0001|8088=11516005815171|10=170|8=FIX.4.2|9=109|35=URP|34=57|49=SANJINUAT|52=20180115-08:43:45.118|56=CICCIMSUAT|115=SANJIN|1=0884PT0001|8088=11516005825174|10=192|8=FIX.4.2|9=109|35=URB|34=58|49=SANJINUAT|52=20180115-08:43:45.118|56=CICCIMSUAT|115=SANJIN|1=0884PT0001|8088=11516005825175|10=180|8=FIX.4.2|9=109|35=URP|34=59|49=SANJINUAT|52=20180115-08:43:55.120|56=CICCIMSUAT|115=SANJIN|1=0884PT0001|8088=11516005835178|10=193|8=FIX.4.2|9=109|35=URB|34=60|49=SANJINUAT|52=20180115-08:43:55.120|56=CICCIMSUAT|115=SANJIN|1=0884PT0001|8088=11516005835179|10=172|8=FIX.4.2|9=109|35=URP|34=61|49=SANJINUAT|52=20180115-08:44:05.122|56=CICCIMSUAT|115=SANJIN|1=0884PT0001|8088=11516005845182|10=180|8=FIX.4.2|9=109|35=URB|34=62|49=SANJINUAT|52=20180115-08:44:05.122|56=CICCIMSUAT|115=SANJIN|1=0884PT0001|8088=11516005845183|10=168|8=FIX.4.2|9=109|35=URP|34=63|49=SANJINUAT|52=20180115-08:44:15.125|56=CICCIMSUAT|115=SANJIN|1=0884PT0001|8088=11516005855187|10=192|8=FIX.4.2|9=109|35=URB|34=64|49=SANJINUAT|52=20180115-08:44:15.125|56=CICCIMSUAT|115=SANJIN|1=0884PT0001|8088=11516005855188|10=180|8=FIX.4.2|9=109|35=URP|34=65|49=SANJINUAT|52=20180115-08:44:25.128|56=CICCIMSUAT|115=SANJIN|1=0884PT0001|8088=11516005865192|10=195|8=FIX.4.2|9=109|35=URB|34=66|49=SANJINUAT|52=20180115-08:44:25.128|56=CICCIMSUAT|115=SANJIN|1=0884PT0001|8088=11516005865193|10=183|8=FIX.4.2|9=109|35=URP|34=67|49=SANJINUAT|52=20180115-08:44:35.130|56=CICCIMSUAT|115=SANJIN|1=0884PT0001|8088=11516005875196|10=196|8=FIX.4.2|9=109|35=URB|34=68|49=SANJINUAT|52=20180115-08:44:35.130|56=CICCIMSUAT|115=SANJIN|1=0884PT0001|8088=11516005875197|10=184|8=FIX.4.2|9=109|35=URP|34=69|49=SANJINUAT|52=20180115-08:44:45.132|56=CICCIMSUAT|115=SANJIN|1=0884PT0001|8088=11516005885200|10=188|8=FIX.4.2|9=109|35=URB|34=70|49=SANJINUAT|52=20180115-08:44:45.132|56=CICCIMSUAT|115=SANJIN|1=0884PT0001|8088=11516005885201|10=167|8=FIX.4.2|9=109|35=URP|34=71|49=SANJINUAT|52=20180115-08:44:55.134|56=CICCIMSUAT|115=SANJIN|1=0884PT0001|8088=11516005895204|10=189|8=FIX.4.2|9=109|35=URB|34=72|49=SANJINUAT|52=20180115-08:44:55.134|56=CICCIMSUAT|115=SANJIN|1=0884PT0001|8088=11516005895205|10=177|8=FIX.4.2|9=109|35=URP|34=73|49=SANJINUAT|52=20180115-08:45:05.136|56=CICCIMSUAT|115=SANJIN|1=0884PT0001|8088=11516005905208|10=185|8=FIX.4.2|9=109|35=URB|34=74|49=SANJINUAT|52=20180115-08:45:05.136|56=CICCIMSUAT|115=SANJIN|1=0884PT0001|8088=11516005905209|10=173|8=FIX.4.2|9=109|35=URP|34=75|49=SANJINUAT|52=20180115-08:45:15.138|56=CICCIMSUAT|115=SANJIN|1=0884PT0001|8088=11516005915212|10=186|8=FIX.4.2|9=109|35=URB|34=76|49=SANJINUAT|52=20180115-08:45:15.138|56=CICCIMSUAT|115=SANJIN|1=0884PT0001|8088=11516005915213|10=174|8=FIX.4.2|9=109|35=URP|34=77|49=SANJINUAT|52=20180115-08:45:25.140|56=CICCIMSUAT|115=SANJIN|1=0884PT0001|8088=11516005925216|10=187|8=FIX.4.2|9=109|35=URB|34=78|49=SANJINUAT|52=20180115-08:45:25.140|56=CICCIMSUAT|115=SANJIN|1=0884PT0001|8088=11516005925217|10=175|8=FIX.4.2|9=109|35=URP|34=79|49=SANJINUAT|52=20180115-08:45:35.141|56=CICCIMSUAT|115=SANJIN|1=0884PT0001|8088=11516005935219|10=195|8=FIX.4.2|9=109|35=URB|34=80|49=SANJINUAT|52=20180115-08:45:35.141|56=CICCIMSUAT|115=SANJIN|1=0884PT0001|8088=11516005935220|10=165|8=FIX.4.2|9=109|35=URP|34=81|49=SANJINUAT|52=20180115-08:45:45.142|56=CICCIMSUAT|115=SANJIN|1=0884PT0001|8088=11516005945222|10=185|8=FIX.4.2|9=109|35=URB|34=82|49=SANJINUAT|52=20180115-08:45:45.142|56=CICCIMSUAT|115=SANJIN|1=0884PT0001|8088=11516005945223|10=173|8=FIX.4.2|9=109|35=URP|34=83|49=SANJINUAT|52=20180115-08:45:55.143|56=CICCIMSUAT|115=SANJIN|1=0884PT0001|8088=11516005955225|10=193|8=FIX.4.2|9=109|35=URB|34=84|49=SANJINUAT|52=20180115-08:45:55.143|56=CICCIMSUAT|115=SANJIN|1=0884PT0001|8088=11516005955226|10=181|8=FIX.4.2|9=109|35=URP|34=85|49=SANJINUAT|52=20180115-08:46:05.144|56=CICCIMSUAT|115=SANJIN|1=0884PT0001|8088=11516005965228|10=196|8=FIX.4.2|9=109|35=URB|34=86|49=SANJINUAT|52=20180115-08:46:05.144|56=CICCIMSUAT|115=SANJIN|1=0884PT0001|8088=11516005965229|10=184|8=FIX.4.2|9=109|35=URP|34=87|49=SANJINUAT|52=20180115-08:46:15.145|56=CICCIMSUAT|115=SANJIN|1=0884PT0001|8088=11516005975231|10=195|8=FIX.4.2|9=109|35=URB|34=88|49=SANJINUAT|52=20180115-08:46:15.145|56=CICCIMSUAT|115=SANJIN|1=0884PT0001|8088=11516005975232|10=183|8=FIX.4.2|9=109|35=URP|34=89|49=SANJINUAT|52=20180115-08:46:25.146|56=CICCIMSUAT|115=SANJIN|1=0884PT0001|8088=11516005985234|10=203|8=FIX.4.2|9=109|35=URB|34=90|49=SANJINUAT|52=20180115-08:46:25.146|56=CICCIMSUAT|115=SANJIN|1=0884PT0001|8088=11516005985235|10=182|8=FIX.4.2|9=109|35=URP|34=91|49=SANJINUAT|52=20180115-08:46:35.147|56=CICCIMSUAT|115=SANJIN|1=0884PT0001|8088=11516005995237|10=202|8=FIX.4.2|9=109|35=URB|34=92|49=SANJINUAT|52=20180115-08:46:35.147|56=CICCIMSUAT|115=SANJIN|1=0884PT0001|8088=11516005995238|10=190|8=FIX.4.2|9=109|35=URP|34=93|49=SANJINUAT|52=20180115-08:46:45.148|56=CICCIMSUAT|115=SANJIN|1=0884PT0001|8088=11516006005240|10=183|8=FIX.4.2|9=109|35=URB|34=94|49=SANJINUAT|52=20180115-08:46:45.148|56=CICCIMSUAT|115=SANJIN|1=0884PT0001|8088=11516006005241|10=171|8=FIX.4.2|9=109|35=URP|34=95|49=SANJINUAT|52=20180115-08:46:55.150|56=CICCIMSUAT|115=SANJIN|1=0884PT0001|8088=11516006015244|10=184|8=FIX.4.2|9=109|35=URB|34=96|49=SANJINUAT|52=20180115-08:46:55.150|56=CICCIMSUAT|115=SANJIN|1=0884PT0001|8088=11516006015245|10=172|8=FIX.4.2|9=109|35=URP|34=97|49=SANJINUAT|52=20180115-08:47:05.151|56=CICCIMSUAT|115=SANJIN|1=0884PT0001|8088=11516006025247|10=187|8=FIX.4.2|9=109|35=URB|34=98|49=SANJINUAT|52=20180115-08:47:05.151|56=CICCIMSUAT|115=SANJIN|1=0884PT0001|8088=11516006025248|10=175|8=FIX.4.2|9=109|35=URP|34=99|49=SANJINUAT|52=20180115-08:47:15.152|56=CICCIMSUAT|115=SANJIN|1=0884PT0001|8088=11516006035250|10=186|8=FIX.4.2|9=110|35=URB|34=100|49=SANJINUAT|52=20180115-08:47:15.152|56=CICCIMSUAT|115=SANJIN|1=0884PT0001|8088=11516006035251|10=196|8=FIX.4.2|9=110|35=URP|34=101|49=SANJINUAT|52=20180115-08:47:25.153|56=CICCIMSUAT|115=SANJIN|1=0884PT0001|8088=11516006045253|10=216|8=FIX.4.2|9=110|35=URB|34=102|49=SANJINUAT|52=20180115-08:47:25.153|56=CICCIMSUAT|115=SANJIN|1=0884PT0001|8088=11516006045254|10=204|8=FIX.4.2|9=110|35=URP|34=103|49=SANJINUAT|52=20180115-08:47:35.154|56=CICCIMSUAT|115=SANJIN|1=0884PT0001|8088=11516006055256|10=224|8=FIX.4.2|9=110|35=URB|34=104|49=SANJINUAT|52=20180115-08:47:35.154|56=CICCIMSUAT|115=SANJIN|1=0884PT0001|8088=11516006055257|10=212|8=FIX.4.2|9=110|35=URP|34=105|49=SANJINUAT|52=20180115-08:47:45.155|56=CICCIMSUAT|115=SANJIN|1=0884PT0001|8088=11516006065259|10=232|8=FIX.4.2|9=110|35=URB|34=106|49=SANJINUAT|52=20180115-08:47:45.155|56=CICCIMSUAT|115=SANJIN|1=0884PT0001|8088=11516006065260|10=211|8=FIX.4.2|9=110|35=URP|34=107|49=SANJINUAT|52=20180115-08:47:55.157|56=CICCIMSUAT|115=SANJIN|1=0884PT0001|8088=11516006075263|10=233|8=FIX.4.2|9=110|35=URB|34=108|49=SANJINUAT|52=20180115-08:47:55.157|56=CICCIMSUAT|115=SANJIN|1=0884PT0001|8088=11516006075264|10=221|8=FIX.4.2|9=110|35=URP|34=109|49=SANJINUAT|52=20180115-08:48:05.158|56=CICCIMSUAT|115=SANJIN|1=0884PT0001|8088=11516006085266|10=236|8=FIX.4.2|9=110|35=URB|34=110|49=SANJINUAT|52=20180115-08:48:05.158|56=CICCIMSUAT|115=SANJIN|1=0884PT0001|8088=11516006085267|10=215|8=FIX.4.2|9=110|35=URP|34=111|49=SANJINUAT|52=20180115-08:48:15.159|56=CICCIMSUAT|115=SANJIN|1=0884PT0001|8088=11516006095269|10=235|8=FIX.4.2|9=110|35=URB|34=112|49=SANJINUAT|52=20180115-08:48:15.159|56=CICCIMSUAT|115=SANJIN|1=0884PT0001|8088=11516006095270|10=214|8=FIX.4.2|9=110|35=URP|34=113|49=SANJINUAT|52=20180115-08:48:25.160|56=CICCIMSUAT|115=SANJIN|1=0884PT0001|8088=11516006105272|10=216|8=FIX.4.2|9=110|35=URB|34=114|49=SANJINUAT|52=20180115-08:48:25.160|56=CICCIMSUAT|115=SANJIN|1=0884PT0001|8088=11516006105273|10=204|8=FIX.4.2|9=110|35=URP|34=115|49=SANJINUAT|52=20180115-08:48:35.161|56=CICCIMSUAT|115=SANJIN|1=0884PT0001|8088=11516006115275|10=224|8=FIX.4.2|9=110|35=URB|34=116|49=SANJINUAT|52=20180115-08:48:35.161|56=CICCIMSUAT|115=SANJIN|1=0884PT0001|8088=11516006115276|10=212|8=FIX.4.2|9=110|35=URP|34=117|49=SANJINUAT|52=20180115-08:48:45.162|56=CICCIMSUAT|115=SANJIN|1=0884PT0001|8088=11516006125278|10=232|8=FIX.4.2|9=110|35=URB|34=118|49=SANJINUAT|52=20180115-08:48:45.162|56=CICCIMSUAT|115=SANJIN|1=0884PT0001|8088=11516006125279|10=220|8=FIX.4.2|9=110|35=URP|34=119|49=SANJINUAT|52=20180115-08:48:55.163|56=CICCIMSUAT|115=SANJIN|1=0884PT0001|8088=11516006135281|10=231|8=FIX.4.2|9=110|35=URB|34=120|49=SANJINUAT|52=20180115-08:48:55.163|56=CICCIMSUAT|115=SANJIN|1=0884PT0001|8088=11516006135282|10=210|8=FIX.4.2|9=110|35=URP|34=121|49=SANJINUAT|52=20180115-08:49:05.164|56=CICCIMSUAT|115=SANJIN|1=0884PT0001|8088=11516006145284|10=225|8=FIX.4.2|9=110|35=URB|34=122|49=SANJINUAT|52=20180115-08:49:05.164|56=CICCIMSUAT|115=SANJIN|1=0884PT0001|8088=11516006145285|10=213|8=FIX.4.2|9=110|35=URP|34=123|49=SANJINUAT|52=20180115-08:49:15.165|56=CICCIMSUAT|115=SANJIN|1=0884PT0001|8088=11516006155287|10=233|8=FIX.4.2|9=110|35=URB|34=124|49=SANJINUAT|52=20180115-08:49:15.165|56=CICCIMSUAT|115=SANJIN|1=0884PT0001|8088=11516006155288|10=221|8=FIX.4.2|9=110|35=URP|34=125|49=SANJINUAT|52=20180115-08:49:25.166|56=CICCIMSUAT|115=SANJIN|1=0884PT0001|8088=11516006165290|10=232|8=FIX.4.2|9=110|35=URB|34=126|49=SANJINUAT|52=20180115-08:49:25.166|56=CICCIMSUAT|115=SANJIN|1=0884PT0001|8088=11516006165291|10=220|8=FIX.4.2|9=110|35=URP|34=127|49=SANJINUAT|52=20180115-08:49:35.168|56=CICCIMSUAT|115=SANJIN|1=0884PT0001|8088=11516006175294|10=242|8=FIX.4.2|9=110|35=URB|34=128|49=SANJINUAT|52=20180115-08:49:35.168|56=CICCIMSUAT|115=SANJIN|1=0884PT0001|8088=11516006175295|10=230|8=FIX.4.2|9=110|35=URP|34=129|49=SANJINUAT|52=20180115-08:49:45.170|56=CICCIMSUAT|115=SANJIN|1=0884PT0001|8088=11516006185298|10=243|8=FIX.4.2|9=110|35=URB|34=130|49=SANJINUAT|52=20180115-08:49:45.170|56=CICCIMSUAT|115=SANJIN|1=0884PT0001|8088=11516006185299|10=222|8=FIX.4.2|9=110|35=URP|34=131|49=SANJINUAT|52=20180115-08:49:55.171|56=CICCIMSUAT|115=SANJIN|1=0884PT0001|8088=11516006195301|10=224|8=FIX.4.2|9=110|35=URB|34=132|49=SANJINUAT|52=20180115-08:49:55.171|56=CICCIMSUAT|115=SANJIN|1=0884PT0001|8088=11516006195302|10=212|8=FIX.4.2|9=110|35=URP|34=133|49=SANJINUAT|52=20180115-08:50:05.172|56=CICCIMSUAT|115=SANJIN|1=0884PT0001|8088=11516006205304|10=209|8=FIX.4.2|9=110|35=URB|34=134|49=SANJINUAT|52=20180115-08:50:05.172|56=CICCIMSUAT|115=SANJIN|1=0884PT0001|8088=11516006205305|10=197|8=FIX.4.2|9=110|35=URP|34=135|49=SANJINUAT|52=20180115-08:50:15.173|56=CICCIMSUAT|115=SANJIN|1=0884PT0001|8088=11516006215307|10=217|8=FIX.4.2|9=110|35=URB|34=136|49=SANJINUAT|52=20180115-08:50:15.173|56=CICCIMSUAT|115=SANJIN|1=0884PT0001|8088=11516006215308|10=205|8=FIX.4.2|9=110|35=URP|34=137|49=SANJINUAT|52=20180115-08:50:25.174|56=CICCIMSUAT|115=SANJIN|1=0884PT0001|8088=11516006225310|10=216|8=FIX.4.2|9=110|35=URB|34=138|49=SANJINUAT|52=20180115-08:50:25.174|56=CICCIMSUAT|115=SANJIN|1=0884PT0001|8088=11516006225311|10=204|8=FIX.4.2|9=110|35=URP|34=139|49=SANJINUAT|52=20180115-08:50:35.175|56=CICCIMSUAT|115=SANJIN|1=0884PT0001|8088=11516006235313|10=224|8=FIX.4.2|9=110|35=URB|34=140|49=SANJINUAT|52=20180115-08:50:35.175|56=CICCIMSUAT|115=SANJIN|1=0884PT0001|8088=11516006235314|10=203|8=FIX.4.2|9=110|35=URP|34=141|49=SANJINUAT|52=20180115-08:50:45.176|56=CICCIMSUAT|115=SANJIN|1=0884PT0001|8088=11516006245316|10=223|8=FIX.4.2|9=110|35=URB|34=142|49=SANJINUAT|52=20180115-08:50:45.176|56=CICCIMSUAT|115=SANJIN|1=0884PT0001|8088=11516006245317|10=211|8=FIX.4.2|9=110|35=URP|34=143|49=SANJINUAT|52=20180115-08:50:55.177|56=CICCIMSUAT|115=SANJIN|1=0884PT0001|8088=11516006255319|10=231|8=FIX.4.2|9=110|35=URB|34=144|49=SANJINUAT|52=20180115-08:50:55.177|56=CICCIMSUAT|115=SANJIN|1=0884PT0001|8088=11516006255320|10=210|8=FIX.4.2|9=110|35=URP|34=145|49=SANJINUAT|52=20180115-08:51:05.178|56=CICCIMSUAT|115=SANJIN|1=0884PT0001|8088=11516006265322|10=225|8=FIX.4.2|9=110|35=URB|34=146|49=SANJINUAT|52=20180115-08:51:05.178|56=CICCIMSUAT|115=SANJIN|1=0884PT0001|8088=11516006265323|10=213|8=FIX.4.2|9=110|35=URP|34=147|49=SANJINUAT|52=20180115-08:51:15.179|56=CICCIMSUAT|115=SANJIN|1=0884PT0001|8088=11516006275325|10=233|8=FIX.4.2|9=110|35=URB|34=148|49=SANJINUAT|52=20180115-08:51:15.179|56=CICCIMSUAT|115=SANJIN|1=0884PT0001|8088=11516006275326|10=221|8=FIX.4.2|9=110|35=URP|34=149|49=SANJINUAT|52=20180115-08:51:25.180|56=CICCIMSUAT|115=SANJIN|1=0884PT0001|8088=11516006285328|10=232|8=FIX.4.2|9=110|35=URB|34=150|49=SANJINUAT|52=20180115-08:51:25.180|56=CICCIMSUAT|115=SANJIN|1=0884PT0001|8088=11516006285329|10=211|8=FIX.4.2|9=110|35=URP|34=151|49=SANJINUAT|52=20180115-08:51:35.181|56=CICCIMSUAT|115=SANJIN|1=0884PT0001|8088=11516006295331|10=222|8=FIX.4.2|9=110|35=URB|34=152|49=SANJINUAT|52=20180115-08:51:35.181|56=CICCIMSUAT|115=SANJIN|1=0884PT0001|8088=11516006295332|10=210|8=FIX.4.2|9=110|35=URP|34=153|49=SANJINUAT|52=20180115-08:51:45.183|56=CICCIMSUAT|115=SANJIN|1=0884PT0001|8088=11516006305335|10=223|8=FIX.4.2|9=110|35=URB|34=154|49=SANJINUAT|52=20180115-08:51:45.183|56=CICCIMSUAT|115=SANJIN|1=0884PT0001|8088=11516006305336|10=211|8=FIX.4.2|9=110|35=URP|34=155|49=SANJINUAT|52=20180115-08:51:55.184|56=CICCIMSUAT|115=SANJIN|1=0884PT0001|8088=11516006315338|10=231|8=FIX.4.2|9=110|35=URB|34=156|49=SANJINUAT|52=20180115-08:51:55.184|56=CICCIMSUAT|115=SANJIN|1=0884PT0001|8088=11516006315339|10=219|8=FIX.4.2|9=110|35=URP|34=157|49=SANJINUAT|52=20180115-08:52:05.185|56=CICCIMSUAT|115=SANJIN|1=0884PT0001|8088=11516006325341|10=225|8=FIX.4.2|9=110|35=URB|34=158|49=SANJINUAT|52=20180115-08:52:05.185|56=CICCIMSUAT|115=SANJIN|1=0884PT0001|8088=11516006325342|10=213|8=FIX.4.2|9=110|35=URP|34=159|49=SANJINUAT|52=20180115-08:52:15.186|56=CICCIMSUAT|115=SANJIN|1=0884PT0001|8088=11516006335344|10=233|8=FIX.4.2|9=110|35=URB|34=160|49=SANJINUAT|52=20180115-08:52:15.186|56=CICCIMSUAT|115=SANJIN|1=0884PT0001|8088=11516006335345|10=212|8=FIX.4.2|9=110|35=URP|34=161|49=SANJINUAT|52=20180115-08:52:25.187|56=CICCIMSUAT|115=SANJIN|1=0884PT0001|8088=11516006345347|10=232|8=FIX.4.2|9=110|35=URB|34=162|49=SANJINUAT|52=20180115-08:52:25.187|56=CICCIMSUAT|115=SANJIN|1=0884PT0001|8088=11516006345348|10=220|8=FIX.4.2|9=110|35=URP|34=163|49=SANJINUAT|52=20180115-08:52:35.188|56=CICCIMSUAT|115=SANJIN|1=0884PT0001|8088=11516006355350|10=231|8=FIX.4.2|9=110|35=URB|34=164|49=SANJINUAT|52=20180115-08:52:35.188|56=CICCIMSUAT|115=SANJIN|1=0884PT0001|8088=11516006355351|10=219|