8=FIX.4.2|9=80|35=A|34=1|49=SANJINUAT|52=20171124-05:26:22.674|56=CICCIMSUAT|98=0|108=30|141=Y|10=191|8=FIX.4.2|9=119|35=UF001|34=2|49=SANJINUAT|52=20171124-05:26:24.687|56=CICCIMSUAT|98=0|109=sanjinuat|8001=sanjin123|8088=1511501184687|10=248|8=FIX.4.2|9=184|35=D|34=3|49=SANJINUAT|52=20171124-05:26:25.738|56=CICCIMSUAT|115=SANJIN|1=0326PT0001|11=1511501185701|15=CNY|21=1|38=200|40=2|44=13.3|54=1|55=600000|60=20171124-13:26:25.737|207=XSSC|10=147|8=FIX.4.2|9=62|35=0|34=4|49=SANJINUAT|52=20171124-05:26:56.606|56=CICCIMSUAT|10=109|8=FIX.4.2|9=62|35=0|34=5|49=SANJINUAT|52=20171124-05:27:26.607|56=CICCIMSUAT|10=109|8=FIX.4.2|9=62|35=0|34=6|49=SANJINUAT|52=20171124-05:27:56.608|56=CICCIMSUAT|10=114|8=FIX.4.2|9=62|35=0|34=7|49=SANJINUAT|52=20171124-05:28:26.607|56=CICCIMSUAT|10=112|8=FIX.4.2|9=62|35=0|34=8|49=SANJINUAT|52=20171124-05:28:56.608|56=CICCIMSUAT|10=117|